{
  "abi": [
    {
      "inputs": [
        {
          "internalType": "address",
          "name": "contractAddress",
          "type": "address"
        },
        {
          "internalType": "address",
          "name": "chainlinkPrice",
          "type": "address"
        }
      ],
      "stateMutability": "nonpayable",
      "type": "constructor"
    },
    {
      "anonymous": false,
      "inputs": [
        {
          "indexed": false,
          "internalType": "address",
          "name": "receiver",
          "type": "address"
        },
        {
          "indexed": false,
          "internalType": "uint256",
          "name": "amount",
          "type": "uint256"
        }
      ],
      "name": "COOPTokenTransferConfirmation",
      "type": "event"
    },
    {
      "anonymous": false,
      "inputs": [
        {
          "indexed": false,
          "internalType": "address",
          "name": "cooperant",
          "type": "address"
        },
        {
          "indexed": false,
          "internalType": "uint256",
          "name": "kilograms",
          "type": "uint256"
        }
      ],
      "name": "DepositFruits",
      "type": "event"
    },
    {
      "anonymous": false,
      "inputs": [
        {
          "indexed": false,
          "internalType": "address",
          "name": "sender",
          "type": "address"
        },
        {
          "indexed": false,
          "internalType": "uint256",
          "name": "amount",
          "type": "uint256"
        }
      ],
      "name": "NewMember",
      "type": "event"
    },
    {
      "anonymous": false,
      "inputs": [
        {
          "indexed": false,
          "internalType": "string",
          "name": "message",
          "type": "string"
        }
      ],
      "name": "NotEnoughGoods",
      "type": "event"
    },
    {
      "anonymous": false,
      "inputs": [
        {
          "indexed": true,
          "internalType": "address",
          "name": "previousOwner",
          "type": "address"
        },
        {
          "indexed": true,
          "internalType": "address",
          "name": "newOwner",
          "type": "address"
        }
      ],
      "name": "OwnershipTransferred",
      "type": "event"
    },
    {
      "anonymous": false,
      "inputs": [
        {
          "indexed": false,
          "internalType": "address",
          "name": "account",
          "type": "address"
        }
      ],
      "name": "Paused",
      "type": "event"
    },
    {
      "anonymous": false,
      "inputs": [
        {
          "indexed": false,
          "internalType": "address",
          "name": "sender",
          "type": "address"
        },
        {
          "indexed": false,
          "internalType": "uint256",
          "name": "amount",
          "type": "uint256"
        }
      ],
      "name": "ToContract",
      "type": "event"
    },
    {
      "anonymous": false,
      "inputs": [
        {
          "indexed": false,
          "internalType": "string",
          "name": "messageToProducer",
          "type": "string"
        },
        {
          "indexed": false,
          "internalType": "uint256",
          "name": "inEthProducer",
          "type": "uint256"
        },
        {
          "indexed": false,
          "internalType": "string",
          "name": "messageToCoop",
          "type": "string"
        },
        {
          "indexed": false,
          "internalType": "uint256",
          "name": "inEthCoop",
          "type": "uint256"
        }
      ],
      "name": "TransferMade",
      "type": "event"
    },
    {
      "anonymous": false,
      "inputs": [
        {
          "indexed": false,
          "internalType": "address",
          "name": "account",
          "type": "address"
        }
      ],
      "name": "Unpaused",
      "type": "event"
    },
    {
      "anonymous": false,
      "inputs": [
        {
          "indexed": false,
          "internalType": "address",
          "name": "receiver",
          "type": "address"
        },
        {
          "indexed": false,
          "internalType": "uint256",
          "name": "amount",
          "type": "uint256"
        }
      ],
      "name": "WithdrawConfirmation",
      "type": "event"
    },
    {
      "stateMutability": "nonpayable",
      "type": "fallback"
    },
    {
      "inputs": [],
      "name": "becomeCoopMember",
      "outputs": [
        {
          "internalType": "bool",
          "name": "",
          "type": "bool"
        }
      ],
      "stateMutability": "payable",
      "type": "function"
    },
    {
      "inputs": [
        {
          "internalType": "uint256",
          "name": "_amount",
          "type": "uint256"
        }
      ],
      "name": "bid",
      "outputs": [
        {
          "internalType": "bool",
          "name": "",
          "type": "bool"
        }
      ],
      "stateMutability": "payable",
      "type": "function"
    },
    {
      "inputs": [
        {
          "internalType": "uint256",
          "name": "_kg",
          "type": "uint256"
        }
      ],
      "name": "depositFruitsToCOOP",
      "outputs": [
        {
          "internalType": "bool",
          "name": "",
          "type": "bool"
        }
      ],
      "stateMutability": "nonpayable",
      "type": "function"
    },
    {
      "inputs": [
        {
          "internalType": "uint256",
          "name": "_amount",
          "type": "uint256"
        }
      ],
      "name": "ethUSD",
      "outputs": [
        {
          "internalType": "uint256",
          "name": "",
          "type": "uint256"
        }
      ],
      "stateMutability": "view",
      "type": "function"
    },
    {
      "inputs": [
        {
          "internalType": "address",
          "name": "_bidder",
          "type": "address"
        }
      ],
      "name": "getBidderAccountBalance",
      "outputs": [
        {
          "internalType": "uint256",
          "name": "",
          "type": "uint256"
        },
        {
          "internalType": "uint256",
          "name": "",
          "type": "uint256"
        }
      ],
      "stateMutability": "view",
      "type": "function"
    },
    {
      "inputs": [],
      "name": "getLatestPrice",
      "outputs": [
        {
          "internalType": "int256",
          "name": "",
          "type": "int256"
        }
      ],
      "stateMutability": "view",
      "type": "function"
    },
    {
      "inputs": [
        {
          "internalType": "address",
          "name": "_user",
          "type": "address"
        }
      ],
      "name": "getUserAccountBalance",
      "outputs": [
        {
          "internalType": "uint256",
          "name": "",
          "type": "uint256"
        },
        {
          "internalType": "uint256",
          "name": "",
          "type": "uint256"
        },
        {
          "internalType": "uint256",
          "name": "",
          "type": "uint256"
        }
      ],
      "stateMutability": "view",
      "type": "function"
    },
    {
      "inputs": [],
      "name": "owner",
      "outputs": [
        {
          "internalType": "address",
          "name": "",
          "type": "address"
        }
      ],
      "stateMutability": "view",
      "type": "function"
    },
    {
      "inputs": [],
      "name": "pause",
      "outputs": [],
      "stateMutability": "nonpayable",
      "type": "function"
    },
    {
      "inputs": [],
      "name": "paused",
      "outputs": [
        {
          "internalType": "bool",
          "name": "",
          "type": "bool"
        }
      ],
      "stateMutability": "view",
      "type": "function"
    },
    {
      "inputs": [],
      "name": "renounceOwnership",
      "outputs": [],
      "stateMutability": "nonpayable",
      "type": "function"
    },
    {
      "inputs": [
        {
          "internalType": "address",
          "name": "",
          "type": "address"
        }
      ],
      "name": "s_bidders",
      "outputs": [
        {
          "internalType": "uint256",
          "name": "totalPayed",
          "type": "uint256"
        },
        {
          "internalType": "uint256",
          "name": "kgBought",
          "type": "uint256"
        }
      ],
      "stateMutability": "view",
      "type": "function"
    },
    {
      "inputs": [
        {
          "internalType": "address",
          "name": "",
          "type": "address"
        }
      ],
      "name": "s_cooperants",
      "outputs": [
        {
          "internalType": "uint256",
          "name": "feePayed",
          "type": "uint256"
        },
        {
          "internalType": "uint256",
          "name": "kg",
          "type": "uint256"
        }
      ],
      "stateMutability": "view",
      "type": "function"
    },
    {
      "inputs": [
        {
          "internalType": "uint256",
          "name": "",
          "type": "uint256"
        }
      ],
      "name": "s_warehouseStock",
      "outputs": [
        {
          "internalType": "address",
          "name": "",
          "type": "address"
        }
      ],
      "stateMutability": "view",
      "type": "function"
    },
    {
      "inputs": [
        {
          "internalType": "address",
          "name": "newOwner",
          "type": "address"
        }
      ],
      "name": "transferOwnership",
      "outputs": [],
      "stateMutability": "nonpayable",
      "type": "function"
    },
    {
      "inputs": [],
      "name": "unpause",
      "outputs": [],
      "stateMutability": "nonpayable",
      "type": "function"
    },
    {
      "inputs": [],
      "name": "withdraw",
      "outputs": [
        {
          "internalType": "bool",
          "name": "",
          "type": "bool"
        }
      ],
      "stateMutability": "nonpayable",
      "type": "function"
    },
    {
      "stateMutability": "payable",
      "type": "receive"
    }
  ],
  "bytecode": "60806040523480156200001157600080fd5b506040516200165a3803806200165a8339810160408190526200003491620000ed565b6000805460ff1916815562000048620000cc565b60008054610100600160a81b0319166101006001600160a01b038416908102919091178255604051929350917f8be0079c531659141344cd1fd0a4f28419497f9722a3daafe3b4186f6b6457e0908290a350600180546001600160a01b039384166001600160a01b0319918216179091556002805492909316911617905562000124565b3390565b80516001600160a01b0381168114620000e857600080fd5b919050565b6000806040838503121562000100578182fd5b6200010b83620000d0565b91506200011b60208401620000d0565b90509250929050565b61152680620001346000396000f3fe6080604052600436106101025760003560e01c806367b77318116100955780638e15f473116100645780638e15f473146102d45780639d6ace6c146102e9578063bf7b5e8114610309578063bfd3562614610329578063f2fde38b1461033157610142565b806367b7731814610268578063715018a6146102955780638456cb59146102aa5780638da5cb5b146102bf57610142565b8063454a2ab3116100d1578063454a2ab3146101f35780634f557cb9146102065780635c975abb1461022657806362d5111e1461023b57610142565b80632d665ebc146101545780633ccfd60b1461018b5780633f4ba83a146101ad5780633f7f4f17146101c457610142565b36610142577f4eb793aae0ced39326b3915756508a3909b3740b510819b76a89d83b363c4336333460405161013892919061119f565b60405180910390a1005b34801561014e57600080fd5b50600080fd5b34801561016057600080fd5b5061017461016f3660046110c2565b610351565b60405161018292919061142d565b60405180910390f35b34801561019757600080fd5b506101a061036a565b60405161018291906111b8565b3480156101b957600080fd5b506101c2610481565b005b3480156101d057600080fd5b506101e46101df3660046110c2565b6104ca565b6040516101829392919061143b565b6101a0610201366004611109565b61058a565b34801561021257600080fd5b506101a0610221366004611109565b610a26565b34801561023257600080fd5b506101a0610b42565b34801561024757600080fd5b5061025b610256366004611109565b610b4b565b60405161018291906111c3565b34801561027457600080fd5b50610288610283366004611109565b610b8d565b604051610182919061118b565b3480156102a157600080fd5b506101c2610bb7565b3480156102b657600080fd5b506101c2610c45565b3480156102cb57600080fd5b50610288610c8c565b3480156102e057600080fd5b5061025b610ca0565b3480156102f557600080fd5b506101746103043660046110c2565b610d34565b34801561031557600080fd5b506101746103243660046110c2565b610d4d565b6101a0610d70565b34801561033d57600080fd5b506101c261034c3660046110c2565b610e4a565b6004602052600090815260409020805460019091015482565b6000610374610f15565b6001600160a01b0316610385610c8c565b6001600160a01b0316146103b45760405162461bcd60e51b81526004016103ab90611306565b60405180910390fd5b4760006103bf610c8c565b6001600160a01b0316476040516103d590611188565b60006040518083038185875af1925050503d8060008114610412576040519150601f19603f3d011682016040523d82523d6000602084013e610417565b606091505b505090507f5bcafda3faa3c2ff1de30d0302f1debdf1836ba6276b096a91a2c95f7d863815610444610c8c565b8360405161045392919061119f565b60405180910390a1806104785760405162461bcd60e51b81526004016103ab906112ae565b60019250505090565b610489610f15565b6001600160a01b031661049a610c8c565b6001600160a01b0316146104c05760405162461bcd60e51b81526004016103ab90611306565b6104c8610f19565b565b6001600160a01b0380821660009081526004602081905260408083208054600191820154915492516370a0823160e01b81529495869586959294670de0b6b3a7640000939216916370a0823191610523918b910161118b565b60206040518083038186803b15801561053b57600080fd5b505afa15801561054f573d6000803e3d6000fd5b505050506040513d601f19601f820116820180604052508101906105739190611121565b61057d9190611469565b9250925092509193909250565b6000610594610b42565b156105b15760405162461bcd60e51b81526004016103ab906112dc565b60005b600354811015610a1b576000600382815481106105e157634e487b7160e01b600052603260045260246000fd5b60009182526020808320909101546001600160a01b03168083526004909152604090912060010154909150841061082b576001600160a01b03811660009081526004602052604081206001015461063a90600990611489565b90506000606461064983610b4b565b6106539190611469565b61065e90605f611489565b90506000606461066d84610b4b565b6106779190611469565b610682906005611489565b90506000846001600160a01b03168360405161069d90611188565b60006040518083038185875af1925050503d80600081146106da576040519150601f19603f3d011682016040523d82523d6000602084013e6106df565b606091505b50509050806107005760405162461bcd60e51b81526004016103ab906112ae565b6003868154811061072157634e487b7160e01b600052603260045260246000fd5b6000918252602080832090910180546001600160a01b03191690556001600160a01b038716825260049052604090206001015461075e90896114a8565b3360009081526005602052604081208054929a508692909190610782908490611451565b90915550506001600160a01b03851660009081526004602090815260408083206001908101543385526005909352908320018054919290916107c5908490611451565b90915550506001600160a01b03851660009081526004602052604080822060010191909155517f9a93694c4d5aec733b64ffc1f2c820dfdc9c3ee31d369664ecb3d87eb9061b109061081a9085908590611386565b60405180910390a150505050610a08565b6001600160a01b03811660009081526004602052604090206001015484116109d2576001600160a01b038116600090815260046020526040812060010180548692906108789084906114a8565b909155506000905061088b600986611489565b90506000606461089a83610b4b565b6108a49190611469565b6108af90605f611489565b9050600060646108be84610b4b565b6108c89190611469565b6108d3906005611489565b336000908152600560205260408120600101805492935089929091906108fa908490611451565b9091555050336000908152600560205260408120805485929061091e908490611451565b925050819055506000846001600160a01b03168360405161093e90611188565b60006040518083038185875af1925050503d806000811461097b576040519150601f19603f3d011682016040523d82523d6000602084013e610980565b606091505b50509050806109a15760405162461bcd60e51b81526004016103ab906112ae565b7f9a93694c4d5aec733b64ffc1f2c820dfdc9c3ee31d369664ecb3d87eb9061b10838360405161081a929190611386565b7face95a40215fc0e010749f22271567a495ff9bba78eff7d7447817795abadc226040516109ff9061133b565b60405180910390a15b5080610a13816114bf565b9150506105b4565b50600190505b919050565b6000610a30610b42565b15610a4d5760405162461bcd60e51b81526004016103ab906112dc565b33600090815260046020526040902054610a795760405162461bcd60e51b81526004016103ab90611277565b3360009081526004602052604081206001018054849290610a9b908490611451565b9091555050600380546001810182556000919091527fc2575a0e9e593c00f959f8c92f12db2869c3395a3b0502d05e2516446f71f85b0180546001600160a01b03191633908117909155610b0090610afb84670de0b6b3a7640000611489565b610f87565b507f255fc9735037ba0730909adcc04691fb7c2dd775114a7e9533ececef8248e5243383604051610b3292919061119f565b60405180910390a1506001919050565b60005460ff1690565b600080610b56610ca0565b9050600081610b6e85683635c9adc5dea00000611489565b610b789190611469565b610b8590620186a0611489565b949350505050565b60038181548110610b9d57600080fd5b6000918252602090912001546001600160a01b0316905081565b610bbf610f15565b6001600160a01b0316610bd0610c8c565b6001600160a01b031614610bf65760405162461bcd60e51b81526004016103ab90611306565b600080546040516101009091046001600160a01b0316907f8be0079c531659141344cd1fd0a4f28419497f9722a3daafe3b4186f6b6457e0908390a360008054610100600160a81b0319169055565b610c4d610f15565b6001600160a01b0316610c5e610c8c565b6001600160a01b031614610c845760405162461bcd60e51b81526004016103ab90611306565b6104c861104d565b60005461010090046001600160a01b031690565b600080600260009054906101000a90046001600160a01b03166001600160a01b031663feaf968c6040518163ffffffff1660e01b815260040160a06040518083038186803b158015610cf157600080fd5b505afa158015610d05573d6000803e3d6000fd5b505050506040513d601f19601f82011682018060405250810190610d299190611139565b509194505050505090565b6005602052600090815260409020805460019091015482565b6001600160a01b0316600090815260056020526040902080546001909101549091565b6000610d7a610b42565b15610d975760405162461bcd60e51b81526004016103ab906112dc565b3360009081526004602052604090205415610dc45760405162461bcd60e51b81526004016103ab90611240565b6103e8341015610de65760405162461bcd60e51b81526004016103ab906113f6565b3360009081526004602052604081208054349290610e05908490611451565b90915550506040517f7f48e4f7f3ef2c63408b16a799b8516cb879c145386aedd51a36938a02a1c28390610e3c903390349061119f565b60405180910390a150600190565b610e52610f15565b6001600160a01b0316610e63610c8c565b6001600160a01b031614610e895760405162461bcd60e51b81526004016103ab90611306565b6001600160a01b038116610eaf5760405162461bcd60e51b81526004016103ab906111fa565b600080546040516001600160a01b038085169361010090930416917f8be0079c531659141344cd1fd0a4f28419497f9722a3daafe3b4186f6b6457e091a3600080546001600160a01b0390921661010002610100600160a81b0319909216919091179055565b3390565b610f21610b42565b610f3d5760405162461bcd60e51b81526004016103ab906111cc565b6000805460ff191690557f5db9ee0a495bf2e6ff9c91a7834c1ba4fdd244a5e8aa4e537bd38aeae4b073aa610f70610f15565b604051610f7d919061118b565b60405180910390a1565b60007f160f401dd6d182905810fd6323e93eb677c6fe100b0010a51d3de5cce59e439a8383604051610fba92919061119f565b60405180910390a160015460405163a9059cbb60e01b81526001600160a01b039091169063a9059cbb90610ff4908690869060040161119f565b602060405180830381600087803b15801561100e57600080fd5b505af1158015611022573d6000803e3d6000fd5b505050506040513d601f19601f8201168201806040525081019061104691906110e9565b9392505050565b611055610b42565b156110725760405162461bcd60e51b81526004016103ab906112dc565b6000805460ff191660011790557f62e78cea01bee320cd4e420270b5ea74000d11b0c9f74754ebdbfc544b05a258610f70610f15565b805169ffffffffffffffffffff81168114610a2157600080fd5b6000602082840312156110d3578081fd5b81356001600160a01b0381168114611046578182fd5b6000602082840312156110fa578081fd5b81518015158114611046578182fd5b60006020828403121561111a578081fd5b5035919050565b600060208284031215611132578081fd5b5051919050565b600080600080600060a08688031215611150578081fd5b611159866110a8565b945060208601519350604086015192506060860151915061117c608087016110a8565b90509295509295909350565b90565b6001600160a01b0391909116815260200190565b6001600160a01b03929092168252602082015260400190565b901515815260200190565b90815260200190565b60208082526014908201527314185d5cd8589b194e881b9bdd081c185d5cd95960621b604082015260600190565b60208082526026908201527f4f776e61626c653a206e6577206f776e657220697320746865207a65726f206160408201526564647265737360d01b606082015260800190565b6020808252601d908201527f596f7520616c726561647920706179206d656265727368697020666565000000604082015260600190565b6020808252601e908201527f506c65617365206265636f6d6520536d617274434f4f50206d656d6265720000604082015260600190565b6020808252601490820152732330b4b632b2103a379039b2b7321022ba3432b960611b604082015260600190565b60208082526010908201526f14185d5cd8589b194e881c185d5cd95960821b604082015260600190565b6020808252818101527f4f776e61626c653a2063616c6c6572206973206e6f7420746865206f776e6572604082015260600190565b6020808252602b908201527f5468657265207369206e6f20656e6f756768207261737062657272696573206960408201526a6e2077617265686f75736560a81b606082015260800190565b6080808252601e908201527f546f20796f7572206163636f756e7420776173207472616e736665726564000060a0820152602081019290925260c06040830181905260139083015272105b99081bdb8810d3d3d4081858d8dbdd5b9d606a1b60e083015260608201526101000190565b6020808252601e908201527f596561726c7920666565206973206d696e696d756d2031303030207765690000604082015260600190565b918252602082015260400190565b9283526020830191909152604082015260600190565b60008219821115611464576114646114da565b500190565b60008261148457634e487b7160e01b81526012600452602481fd5b500490565b60008160001904831182151516156114a3576114a36114da565b500290565b6000828210156114ba576114ba6114da565b500390565b60006000198214156114d3576114d36114da565b5060010190565b634e487b7160e01b600052601160045260246000fdfea2646970667358221220eaa0d175a1577c24d9915987257dee1f9fc7ba6d64ef1391359d4efc27b2707a64736f6c63430008000033",
  "bytecodeSha1": "8682fbdb1c106dec787a78043147cf34bf1c9774",
  "compiler": {
    "evm_version": "istanbul",
    "optimizer": {
      "enabled": true,
      "runs": 200
    },
    "version": "0.8.0+commit.c7dfd78e"
  },
  "contractName": "SmartCOOP",
  "language": "Solidity",
  "natspec": {
    "kind": "dev",
    "methods": {
      "becomeCoopMember()": {
        "notice": "Allowing new EOA to become SmartCOOP member",
        "returns": {
          "_0": "If execution was successful function will return true"
        }
      },
      "bid(uint256)": {
        "details": "RASPBERRY_PRICE is hard coded because there is no out of the box chainlink date feed for raspberry price and alterantive solution includes using HTTP GET request to external API using chainlink request&receive data cycle. What we consider to be a bit out of scope of this project and inital ambition.",
        "notice": "This function will allow any EOA that is not already member of cooperative to bid for fruits inside SmartCOOP warhouse.",
        "params": {
          "_amount": "uint256 for amount of fruits bidder would like to buy"
        },
        "returns": {
          "_0": "If execution was successful function will return true"
        }
      },
      "constructor": {
        "details": "We use COOPToken (ERC20 based OpenZeppelin implementation) address to instatiate this contract inside SmartCOOP and to call transfer function from within depositFruitsToCoop function. Then we use chanilink Kovan test net address to instatiate interface which will provide to us real time ETH/USD price feed. IMPORTANT: if we deploy this contract localy get_contract and get_acount funcitons from scripts/helpful_scripts.py will notice that we are deploying localy and instead of chainlink Kovan test net interface we will deploy mock to be used in context od local enviroment. What means that there is no need for any additional intervention or configuration from side of developer. This contract will be fully operational in Kovan testnet enviroment as well as in local ganache dev enviroment with Chainlink price feed."
      },
      "depositFruitsToCOOP(uint256)": {
        "notice": "Allowing EOA which already pay SmartCOOP membership fee to deposit fruits to SmartCOOP warehouse",
        "params": {
          "_kg": "Passing number of kilograms producer would like to deposit to warehouse"
        },
        "returns": {
          "_0": "If execution was successful function will return true"
        }
      },
      "ethUSD(uint256)": {
        "notice": "Used for calculating amount of wei from USD total",
        "params": {
          "_amount": "Price in USD which should be converetd to wei"
        },
        "returns": {
          "_0": "Amount of wei to be payed"
        }
      },
      "getBidderAccountBalance(address)": {
        "notice": "This function is used to provide overview of bidder SmartCOOP account",
        "params": {
          "_bidder": "We pass bidder address"
        },
        "returns": {
          "_0": "If executed successfully function will return 2 values: 1) total payed for all goods bidder bought; 2) Total amount of kg bidder bought"
        }
      },
      "getLatestPrice()": {
        "details": "In case we deploy contracts to local dev enviroment get_contract and get_acount fuctions from scripts/helpful_scripts.py will deploy mock contract to be used in context of local dev. enviroment. In case we deploy to Kovan test net same function will deploy adequte contracts (KOvan testnet) and use proper accounts for this purpose.",
        "notice": "This function is used to get ETH/USD price ration from Chainlink price data feed. This return value form this function is later used to calculate how much bidder needs to pay for fruits he bought from SmartCOOP .",
        "returns": {
          "_0": "This function returns price (int256 data type) provided by Chainlink price date feed"
        }
      },
      "getUserAccountBalance(address)": {
        "notice": "This function is used to provide overview of user SmartCOOP account",
        "params": {
          "_user": "We pass user address as argument"
        },
        "returns": {
          "_0": "If executed sucesfully function will return 3 values: 1) how much user pay SmartCOOP fee; 2) Total //..//// amount of kg user currenly have in SmartCOOP warehouse; 3) Total amount of COOPTokens he/she receive"
        }
      },
      "owner()": {
        "details": "Returns the address of the current owner."
      },
      "pause()": {
        "details": "This function is used to block usage of becomeCoopMember, depositFruitsToCOOP and bid functions in case of bugs or hacks. Pause function can be called only by EOA who deploy COOPTOkena and SmartCOOP and it is inherited from OpenZeppelin Pausable smart contract."
      },
      "paused()": {
        "details": "Returns true if the contract is paused, and false otherwise."
      },
      "renounceOwnership()": {
        "details": "Leaves the contract without owner. It will not be possible to call `onlyOwner` functions anymore. Can only be called by the current owner. NOTE: Renouncing ownership will leave the contract without an owner, thereby removing any functionality that is only available to the owner."
      },
      "transferOwnership(address)": {
        "details": "Transfers ownership of the contract to a new account (`newOwner`). Can only be called by the current owner."
      },
      "unpause()": {
        "details": "This function is used to unpause usage of becomeCoopMember, deposit FruitsToCOOP and bid functions."
      },
      "withdraw()": {
        "details": "By modifier onlyOwner we restrict right to call this function only to EOA who deploy both SmartCOOP and COOPToken",
        "notice": "This function is used to withdraw eth from SmartCOOP account",
        "returns": {
          "_0": "If execution was successful function will return true"
        }
      }
    },
    "stateVariables": {
      "s_warehouseStock": {
        "details": "All state varibales are marked with starting s_"
      }
    },
    "version": 1
  },
  "opcodes": "PUSH1 0x80 PUSH1 0x40 MSTORE PUSH1 0x4 CALLDATASIZE LT PUSH2 0x102 JUMPI PUSH1 0x0 CALLDATALOAD PUSH1 0xE0 SHR DUP1 PUSH4 0x67B77318 GT PUSH2 0x95 JUMPI DUP1 PUSH4 0x8E15F473 GT PUSH2 0x64 JUMPI DUP1 PUSH4 0x8E15F473 EQ PUSH2 0x2D4 JUMPI DUP1 PUSH4 0x9D6ACE6C EQ PUSH2 0x2E9 JUMPI DUP1 PUSH4 0xBF7B5E81 EQ PUSH2 0x309 JUMPI DUP1 PUSH4 0xBFD35626 EQ PUSH2 0x329 JUMPI DUP1 PUSH4 0xF2FDE38B EQ PUSH2 0x331 JUMPI PUSH2 0x142 JUMP JUMPDEST DUP1 PUSH4 0x67B77318 EQ PUSH2 0x268 JUMPI DUP1 PUSH4 0x715018A6 EQ PUSH2 0x295 JUMPI DUP1 PUSH4 0x8456CB59 EQ PUSH2 0x2AA JUMPI DUP1 PUSH4 0x8DA5CB5B EQ PUSH2 0x2BF JUMPI PUSH2 0x142 JUMP JUMPDEST DUP1 PUSH4 0x454A2AB3 GT PUSH2 0xD1 JUMPI DUP1 PUSH4 0x454A2AB3 EQ PUSH2 0x1F3 JUMPI DUP1 PUSH4 0x4F557CB9 EQ PUSH2 0x206 JUMPI DUP1 PUSH4 0x5C975ABB EQ PUSH2 0x226 JUMPI DUP1 PUSH4 0x62D5111E EQ PUSH2 0x23B JUMPI PUSH2 0x142 JUMP JUMPDEST DUP1 PUSH4 0x2D665EBC EQ PUSH2 0x154 JUMPI DUP1 PUSH4 0x3CCFD60B EQ PUSH2 0x18B JUMPI DUP1 PUSH4 0x3F4BA83A EQ PUSH2 0x1AD JUMPI DUP1 PUSH4 0x3F7F4F17 EQ PUSH2 0x1C4 JUMPI PUSH2 0x142 JUMP JUMPDEST CALLDATASIZE PUSH2 0x142 JUMPI PUSH32 0x4EB793AAE0CED39326B3915756508A3909B3740B510819B76A89D83B363C4336 CALLER CALLVALUE PUSH1 0x40 MLOAD PUSH2 0x138 SWAP3 SWAP2 SWAP1 PUSH2 0x119F JUMP JUMPDEST PUSH1 0x40 MLOAD DUP1 SWAP2 SUB SWAP1 LOG1 STOP JUMPDEST CALLVALUE DUP1 ISZERO PUSH2 0x14E JUMPI PUSH1 0x0 DUP1 REVERT JUMPDEST POP PUSH1 0x0 DUP1 REVERT JUMPDEST CALLVALUE DUP1 ISZERO PUSH2 0x160 JUMPI PUSH1 0x0 DUP1 REVERT JUMPDEST POP PUSH2 0x174 PUSH2 0x16F CALLDATASIZE PUSH1 0x4 PUSH2 0x10C2 JUMP JUMPDEST PUSH2 0x351 JUMP JUMPDEST PUSH1 0x40 MLOAD PUSH2 0x182 SWAP3 SWAP2 SWAP1 PUSH2 0x142D JUMP JUMPDEST PUSH1 0x40 MLOAD DUP1 SWAP2 SUB SWAP1 RETURN JUMPDEST CALLVALUE DUP1 ISZERO PUSH2 0x197 JUMPI PUSH1 0x0 DUP1 REVERT JUMPDEST POP PUSH2 0x1A0 PUSH2 0x36A JUMP JUMPDEST PUSH1 0x40 MLOAD PUSH2 0x182 SWAP2 SWAP1 PUSH2 0x11B8 JUMP JUMPDEST CALLVALUE DUP1 ISZERO PUSH2 0x1B9 JUMPI PUSH1 0x0 DUP1 REVERT JUMPDEST POP PUSH2 0x1C2 PUSH2 0x481 JUMP JUMPDEST STOP JUMPDEST CALLVALUE DUP1 ISZERO PUSH2 0x1D0 JUMPI PUSH1 0x0 DUP1 REVERT JUMPDEST POP PUSH2 0x1E4 PUSH2 0x1DF CALLDATASIZE PUSH1 0x4 PUSH2 0x10C2 JUMP JUMPDEST PUSH2 0x4CA JUMP JUMPDEST PUSH1 0x40 MLOAD PUSH2 0x182 SWAP4 SWAP3 SWAP2 SWAP1 PUSH2 0x143B JUMP JUMPDEST PUSH2 0x1A0 PUSH2 0x201 CALLDATASIZE PUSH1 0x4 PUSH2 0x1109 JUMP JUMPDEST PUSH2 0x58A JUMP JUMPDEST CALLVALUE DUP1 ISZERO PUSH2 0x212 JUMPI PUSH1 0x0 DUP1 REVERT JUMPDEST POP PUSH2 0x1A0 PUSH2 0x221 CALLDATASIZE PUSH1 0x4 PUSH2 0x1109 JUMP JUMPDEST PUSH2 0xA26 JUMP JUMPDEST CALLVALUE DUP1 ISZERO PUSH2 0x232 JUMPI PUSH1 0x0 DUP1 REVERT JUMPDEST POP PUSH2 0x1A0 PUSH2 0xB42 JUMP JUMPDEST CALLVALUE DUP1 ISZERO PUSH2 0x247 JUMPI PUSH1 0x0 DUP1 REVERT JUMPDEST POP PUSH2 0x25B PUSH2 0x256 CALLDATASIZE PUSH1 0x4 PUSH2 0x1109 JUMP JUMPDEST PUSH2 0xB4B JUMP JUMPDEST PUSH1 0x40 MLOAD PUSH2 0x182 SWAP2 SWAP1 PUSH2 0x11C3 JUMP JUMPDEST CALLVALUE DUP1 ISZERO PUSH2 0x274 JUMPI PUSH1 0x0 DUP1 REVERT JUMPDEST POP PUSH2 0x288 PUSH2 0x283 CALLDATASIZE PUSH1 0x4 PUSH2 0x1109 JUMP JUMPDEST PUSH2 0xB8D JUMP JUMPDEST PUSH1 0x40 MLOAD PUSH2 0x182 SWAP2 SWAP1 PUSH2 0x118B JUMP JUMPDEST CALLVALUE DUP1 ISZERO PUSH2 0x2A1 JUMPI PUSH1 0x0 DUP1 REVERT JUMPDEST POP PUSH2 0x1C2 PUSH2 0xBB7 JUMP JUMPDEST CALLVALUE DUP1 ISZERO PUSH2 0x2B6 JUMPI PUSH1 0x0 DUP1 REVERT JUMPDEST POP PUSH2 0x1C2 PUSH2 0xC45 JUMP JUMPDEST CALLVALUE DUP1 ISZERO PUSH2 0x2CB JUMPI PUSH1 0x0 DUP1 REVERT JUMPDEST POP PUSH2 0x288 PUSH2 0xC8C JUMP JUMPDEST CALLVALUE DUP1 ISZERO PUSH2 0x2E0 JUMPI PUSH1 0x0 DUP1 REVERT JUMPDEST POP PUSH2 0x25B PUSH2 0xCA0 JUMP JUMPDEST CALLVALUE DUP1 ISZERO PUSH2 0x2F5 JUMPI PUSH1 0x0 DUP1 REVERT JUMPDEST POP PUSH2 0x174 PUSH2 0x304 CALLDATASIZE PUSH1 0x4 PUSH2 0x10C2 JUMP JUMPDEST PUSH2 0xD34 JUMP JUMPDEST CALLVALUE DUP1 ISZERO PUSH2 0x315 JUMPI PUSH1 0x0 DUP1 REVERT JUMPDEST POP PUSH2 0x174 PUSH2 0x324 CALLDATASIZE PUSH1 0x4 PUSH2 0x10C2 JUMP JUMPDEST PUSH2 0xD4D JUMP JUMPDEST PUSH2 0x1A0 PUSH2 0xD70 JUMP JUMPDEST CALLVALUE DUP1 ISZERO PUSH2 0x33D JUMPI PUSH1 0x0 DUP1 REVERT JUMPDEST POP PUSH2 0x1C2 PUSH2 0x34C CALLDATASIZE PUSH1 0x4 PUSH2 0x10C2 JUMP JUMPDEST PUSH2 0xE4A JUMP JUMPDEST PUSH1 0x4 PUSH1 0x20 MSTORE PUSH1 0x0 SWAP1 DUP2 MSTORE PUSH1 0x40 SWAP1 KECCAK256 DUP1 SLOAD PUSH1 0x1 SWAP1 SWAP2 ADD SLOAD DUP3 JUMP JUMPDEST PUSH1 0x0 PUSH2 0x374 PUSH2 0xF15 JUMP JUMPDEST PUSH1 0x1 PUSH1 0x1 PUSH1 0xA0 SHL SUB AND PUSH2 0x385 PUSH2 0xC8C JUMP JUMPDEST PUSH1 0x1 PUSH1 0x1 PUSH1 0xA0 SHL SUB AND EQ PUSH2 0x3B4 JUMPI PUSH1 0x40 MLOAD PUSH3 0x461BCD PUSH1 0xE5 SHL DUP2 MSTORE PUSH1 0x4 ADD PUSH2 0x3AB SWAP1 PUSH2 0x1306 JUMP JUMPDEST PUSH1 0x40 MLOAD DUP1 SWAP2 SUB SWAP1 REVERT JUMPDEST SELFBALANCE PUSH1 0x0 PUSH2 0x3BF PUSH2 0xC8C JUMP JUMPDEST PUSH1 0x1 PUSH1 0x1 PUSH1 0xA0 SHL SUB AND SELFBALANCE PUSH1 0x40 MLOAD PUSH2 0x3D5 SWAP1 PUSH2 0x1188 JUMP JUMPDEST PUSH1 0x0 PUSH1 0x40 MLOAD DUP1 DUP4 SUB DUP2 DUP6 DUP8 GAS CALL SWAP3 POP POP POP RETURNDATASIZE DUP1 PUSH1 0x0 DUP2 EQ PUSH2 0x412 JUMPI PUSH1 0x40 MLOAD SWAP2 POP PUSH1 0x1F NOT PUSH1 0x3F RETURNDATASIZE ADD AND DUP3 ADD PUSH1 0x40 MSTORE RETURNDATASIZE DUP3 MSTORE RETURNDATASIZE PUSH1 0x0 PUSH1 0x20 DUP5 ADD RETURNDATACOPY PUSH2 0x417 JUMP JUMPDEST PUSH1 0x60 SWAP2 POP JUMPDEST POP POP SWAP1 POP PUSH32 0x5BCAFDA3FAA3C2FF1DE30D0302F1DEBDF1836BA6276B096A91A2C95F7D863815 PUSH2 0x444 PUSH2 0xC8C JUMP JUMPDEST DUP4 PUSH1 0x40 MLOAD PUSH2 0x453 SWAP3 SWAP2 SWAP1 PUSH2 0x119F JUMP JUMPDEST PUSH1 0x40 MLOAD DUP1 SWAP2 SUB SWAP1 LOG1 DUP1 PUSH2 0x478 JUMPI PUSH1 0x40 MLOAD PUSH3 0x461BCD PUSH1 0xE5 SHL DUP2 MSTORE PUSH1 0x4 ADD PUSH2 0x3AB SWAP1 PUSH2 0x12AE JUMP JUMPDEST PUSH1 0x1 SWAP3 POP POP POP SWAP1 JUMP JUMPDEST PUSH2 0x489 PUSH2 0xF15 JUMP JUMPDEST PUSH1 0x1 PUSH1 0x1 PUSH1 0xA0 SHL SUB AND PUSH2 0x49A PUSH2 0xC8C JUMP JUMPDEST PUSH1 0x1 PUSH1 0x1 PUSH1 0xA0 SHL SUB AND EQ PUSH2 0x4C0 JUMPI PUSH1 0x40 MLOAD PUSH3 0x461BCD PUSH1 0xE5 SHL DUP2 MSTORE PUSH1 0x4 ADD PUSH2 0x3AB SWAP1 PUSH2 0x1306 JUMP JUMPDEST PUSH2 0x4C8 PUSH2 0xF19 JUMP JUMPDEST JUMP JUMPDEST PUSH1 0x1 PUSH1 0x1 PUSH1 0xA0 SHL SUB DUP1 DUP3 AND PUSH1 0x0 SWAP1 DUP2 MSTORE PUSH1 0x4 PUSH1 0x20 DUP2 SWAP1 MSTORE PUSH1 0x40 DUP1 DUP4 KECCAK256 DUP1 SLOAD PUSH1 0x1 SWAP2 DUP3 ADD SLOAD SWAP2 SLOAD SWAP3 MLOAD PUSH4 0x70A08231 PUSH1 0xE0 SHL DUP2 MSTORE SWAP5 SWAP6 DUP7 SWAP6 DUP7 SWAP6 SWAP3 SWAP5 PUSH8 0xDE0B6B3A7640000 SWAP4 SWAP3 AND SWAP2 PUSH4 0x70A08231 SWAP2 PUSH2 0x523 SWAP2 DUP12 SWAP2 ADD PUSH2 0x118B JUMP JUMPDEST PUSH1 0x20 PUSH1 0x40 MLOAD DUP1 DUP4 SUB DUP2 DUP7 DUP1 EXTCODESIZE ISZERO DUP1 ISZERO PUSH2 0x53B JUMPI PUSH1 0x0 DUP1 REVERT JUMPDEST POP GAS STATICCALL ISZERO DUP1 ISZERO PUSH2 0x54F JUMPI RETURNDATASIZE PUSH1 0x0 DUP1 RETURNDATACOPY RETURNDATASIZE PUSH1 0x0 REVERT JUMPDEST POP POP POP POP PUSH1 0x40 MLOAD RETURNDATASIZE PUSH1 0x1F NOT PUSH1 0x1F DUP3 ADD AND DUP3 ADD DUP1 PUSH1 0x40 MSTORE POP DUP2 ADD SWAP1 PUSH2 0x573 SWAP2 SWAP1 PUSH2 0x1121 JUMP JUMPDEST PUSH2 0x57D SWAP2 SWAP1 PUSH2 0x1469 JUMP JUMPDEST SWAP3 POP SWAP3 POP SWAP3 POP SWAP2 SWAP4 SWAP1 SWAP3 POP JUMP JUMPDEST PUSH1 0x0 PUSH2 0x594 PUSH2 0xB42 JUMP JUMPDEST ISZERO PUSH2 0x5B1 JUMPI PUSH1 0x40 MLOAD PUSH3 0x461BCD PUSH1 0xE5 SHL DUP2 MSTORE PUSH1 0x4 ADD PUSH2 0x3AB SWAP1 PUSH2 0x12DC JUMP JUMPDEST PUSH1 0x0 JUMPDEST PUSH1 0x3 SLOAD DUP2 LT ISZERO PUSH2 0xA1B JUMPI PUSH1 0x0 PUSH1 0x3 DUP3 DUP2 SLOAD DUP2 LT PUSH2 0x5E1 JUMPI PUSH4 0x4E487B71 PUSH1 0xE0 SHL PUSH1 0x0 MSTORE PUSH1 0x32 PUSH1 0x4 MSTORE PUSH1 0x24 PUSH1 0x0 REVERT JUMPDEST PUSH1 0x0 SWAP2 DUP3 MSTORE PUSH1 0x20 DUP1 DUP4 KECCAK256 SWAP1 SWAP2 ADD SLOAD PUSH1 0x1 PUSH1 0x1 PUSH1 0xA0 SHL SUB AND DUP1 DUP4 MSTORE PUSH1 0x4 SWAP1 SWAP2 MSTORE PUSH1 0x40 SWAP1 SWAP2 KECCAK256 PUSH1 0x1 ADD SLOAD SWAP1 SWAP2 POP DUP5 LT PUSH2 0x82B JUMPI PUSH1 0x1 PUSH1 0x1 PUSH1 0xA0 SHL SUB DUP2 AND PUSH1 0x0 SWAP1 DUP2 MSTORE PUSH1 0x4 PUSH1 0x20 MSTORE PUSH1 0x40 DUP2 KECCAK256 PUSH1 0x1 ADD SLOAD PUSH2 0x63A SWAP1 PUSH1 0x9 SWAP1 PUSH2 0x1489 JUMP JUMPDEST SWAP1 POP PUSH1 0x0 PUSH1 0x64 PUSH2 0x649 DUP4 PUSH2 0xB4B JUMP JUMPDEST PUSH2 0x653 SWAP2 SWAP1 PUSH2 0x1469 JUMP JUMPDEST PUSH2 0x65E SWAP1 PUSH1 0x5F PUSH2 0x1489 JUMP JUMPDEST SWAP1 POP PUSH1 0x0 PUSH1 0x64 PUSH2 0x66D DUP5 PUSH2 0xB4B JUMP JUMPDEST PUSH2 0x677 SWAP2 SWAP1 PUSH2 0x1469 JUMP JUMPDEST PUSH2 0x682 SWAP1 PUSH1 0x5 PUSH2 0x1489 JUMP JUMPDEST SWAP1 POP PUSH1 0x0 DUP5 PUSH1 0x1 PUSH1 0x1 PUSH1 0xA0 SHL SUB AND DUP4 PUSH1 0x40 MLOAD PUSH2 0x69D SWAP1 PUSH2 0x1188 JUMP JUMPDEST PUSH1 0x0 PUSH1 0x40 MLOAD DUP1 DUP4 SUB DUP2 DUP6 DUP8 GAS CALL SWAP3 POP POP POP RETURNDATASIZE DUP1 PUSH1 0x0 DUP2 EQ PUSH2 0x6DA JUMPI PUSH1 0x40 MLOAD SWAP2 POP PUSH1 0x1F NOT PUSH1 0x3F RETURNDATASIZE ADD AND DUP3 ADD PUSH1 0x40 MSTORE RETURNDATASIZE DUP3 MSTORE RETURNDATASIZE PUSH1 0x0 PUSH1 0x20 DUP5 ADD RETURNDATACOPY PUSH2 0x6DF JUMP JUMPDEST PUSH1 0x60 SWAP2 POP JUMPDEST POP POP SWAP1 POP DUP1 PUSH2 0x700 JUMPI PUSH1 0x40 MLOAD PUSH3 0x461BCD PUSH1 0xE5 SHL DUP2 MSTORE PUSH1 0x4 ADD PUSH2 0x3AB SWAP1 PUSH2 0x12AE JUMP JUMPDEST PUSH1 0x3 DUP7 DUP2 SLOAD DUP2 LT PUSH2 0x721 JUMPI PUSH4 0x4E487B71 PUSH1 0xE0 SHL PUSH1 0x0 MSTORE PUSH1 0x32 PUSH1 0x4 MSTORE PUSH1 0x24 PUSH1 0x0 REVERT JUMPDEST PUSH1 0x0 SWAP2 DUP3 MSTORE PUSH1 0x20 DUP1 DUP4 KECCAK256 SWAP1 SWAP2 ADD DUP1 SLOAD PUSH1 0x1 PUSH1 0x1 PUSH1 0xA0 SHL SUB NOT AND SWAP1 SSTORE PUSH1 0x1 PUSH1 0x1 PUSH1 0xA0 SHL SUB DUP8 AND DUP3 MSTORE PUSH1 0x4 SWAP1 MSTORE PUSH1 0x40 SWAP1 KECCAK256 PUSH1 0x1 ADD SLOAD PUSH2 0x75E SWAP1 DUP10 PUSH2 0x14A8 JUMP JUMPDEST CALLER PUSH1 0x0 SWAP1 DUP2 MSTORE PUSH1 0x5 PUSH1 0x20 MSTORE PUSH1 0x40 DUP2 KECCAK256 DUP1 SLOAD SWAP3 SWAP11 POP DUP7 SWAP3 SWAP1 SWAP2 SWAP1 PUSH2 0x782 SWAP1 DUP5 SWAP1 PUSH2 0x1451 JUMP JUMPDEST SWAP1 SWAP2 SSTORE POP POP PUSH1 0x1 PUSH1 0x1 PUSH1 0xA0 SHL SUB DUP6 AND PUSH1 0x0 SWAP1 DUP2 MSTORE PUSH1 0x4 PUSH1 0x20 SWAP1 DUP2 MSTORE PUSH1 0x40 DUP1 DUP4 KECCAK256 PUSH1 0x1 SWAP1 DUP2 ADD SLOAD CALLER DUP6 MSTORE PUSH1 0x5 SWAP1 SWAP4 MSTORE SWAP1 DUP4 KECCAK256 ADD DUP1 SLOAD SWAP2 SWAP3 SWAP1 SWAP2 PUSH2 0x7C5 SWAP1 DUP5 SWAP1 PUSH2 0x1451 JUMP JUMPDEST SWAP1 SWAP2 SSTORE POP POP PUSH1 0x1 PUSH1 0x1 PUSH1 0xA0 SHL SUB DUP6 AND PUSH1 0x0 SWAP1 DUP2 MSTORE PUSH1 0x4 PUSH1 0x20 MSTORE PUSH1 0x40 DUP1 DUP3 KECCAK256 PUSH1 0x1 ADD SWAP2 SWAP1 SWAP2 SSTORE MLOAD PUSH32 0x9A93694C4D5AEC733B64FFC1F2C820DFDC9C3EE31D369664ECB3D87EB9061B10 SWAP1 PUSH2 0x81A SWAP1 DUP6 SWAP1 DUP6 SWAP1 PUSH2 0x1386 JUMP JUMPDEST PUSH1 0x40 MLOAD DUP1 SWAP2 SUB SWAP1 LOG1 POP POP POP POP PUSH2 0xA08 JUMP JUMPDEST PUSH1 0x1 PUSH1 0x1 PUSH1 0xA0 SHL SUB DUP2 AND PUSH1 0x0 SWAP1 DUP2 MSTORE PUSH1 0x4 PUSH1 0x20 MSTORE PUSH1 0x40 SWAP1 KECCAK256 PUSH1 0x1 ADD SLOAD DUP5 GT PUSH2 0x9D2 JUMPI PUSH1 0x1 PUSH1 0x1 PUSH1 0xA0 SHL SUB DUP2 AND PUSH1 0x0 SWAP1 DUP2 MSTORE PUSH1 0x4 PUSH1 0x20 MSTORE PUSH1 0x40 DUP2 KECCAK256 PUSH1 0x1 ADD DUP1 SLOAD DUP7 SWAP3 SWAP1 PUSH2 0x878 SWAP1 DUP5 SWAP1 PUSH2 0x14A8 JUMP JUMPDEST SWAP1 SWAP2 SSTORE POP PUSH1 0x0 SWAP1 POP PUSH2 0x88B PUSH1 0x9 DUP7 PUSH2 0x1489 JUMP JUMPDEST SWAP1 POP PUSH1 0x0 PUSH1 0x64 PUSH2 0x89A DUP4 PUSH2 0xB4B JUMP JUMPDEST PUSH2 0x8A4 SWAP2 SWAP1 PUSH2 0x1469 JUMP JUMPDEST PUSH2 0x8AF SWAP1 PUSH1 0x5F PUSH2 0x1489 JUMP JUMPDEST SWAP1 POP PUSH1 0x0 PUSH1 0x64 PUSH2 0x8BE DUP5 PUSH2 0xB4B JUMP JUMPDEST PUSH2 0x8C8 SWAP2 SWAP1 PUSH2 0x1469 JUMP JUMPDEST PUSH2 0x8D3 SWAP1 PUSH1 0x5 PUSH2 0x1489 JUMP JUMPDEST CALLER PUSH1 0x0 SWAP1 DUP2 MSTORE PUSH1 0x5 PUSH1 0x20 MSTORE PUSH1 0x40 DUP2 KECCAK256 PUSH1 0x1 ADD DUP1 SLOAD SWAP3 SWAP4 POP DUP10 SWAP3 SWAP1 SWAP2 SWAP1 PUSH2 0x8FA SWAP1 DUP5 SWAP1 PUSH2 0x1451 JUMP JUMPDEST SWAP1 SWAP2 SSTORE POP POP CALLER PUSH1 0x0 SWAP1 DUP2 MSTORE PUSH1 0x5 PUSH1 0x20 MSTORE PUSH1 0x40 DUP2 KECCAK256 DUP1 SLOAD DUP6 SWAP3 SWAP1 PUSH2 0x91E SWAP1 DUP5 SWAP1 PUSH2 0x1451 JUMP JUMPDEST SWAP3 POP POP DUP2 SWAP1 SSTORE POP PUSH1 0x0 DUP5 PUSH1 0x1 PUSH1 0x1 PUSH1 0xA0 SHL SUB AND DUP4 PUSH1 0x40 MLOAD PUSH2 0x93E SWAP1 PUSH2 0x1188 JUMP JUMPDEST PUSH1 0x0 PUSH1 0x40 MLOAD DUP1 DUP4 SUB DUP2 DUP6 DUP8 GAS CALL SWAP3 POP POP POP RETURNDATASIZE DUP1 PUSH1 0x0 DUP2 EQ PUSH2 0x97B JUMPI PUSH1 0x40 MLOAD SWAP2 POP PUSH1 0x1F NOT PUSH1 0x3F RETURNDATASIZE ADD AND DUP3 ADD PUSH1 0x40 MSTORE RETURNDATASIZE DUP3 MSTORE RETURNDATASIZE PUSH1 0x0 PUSH1 0x20 DUP5 ADD RETURNDATACOPY PUSH2 0x980 JUMP JUMPDEST PUSH1 0x60 SWAP2 POP JUMPDEST POP POP SWAP1 POP DUP1 PUSH2 0x9A1 JUMPI PUSH1 0x40 MLOAD PUSH3 0x461BCD PUSH1 0xE5 SHL DUP2 MSTORE PUSH1 0x4 ADD PUSH2 0x3AB SWAP1 PUSH2 0x12AE JUMP JUMPDEST PUSH32 0x9A93694C4D5AEC733B64FFC1F2C820DFDC9C3EE31D369664ECB3D87EB9061B10 DUP4 DUP4 PUSH1 0x40 MLOAD PUSH2 0x81A SWAP3 SWAP2 SWAP1 PUSH2 0x1386 JUMP JUMPDEST PUSH32 0xACE95A40215FC0E010749F22271567A495FF9BBA78EFF7D7447817795ABADC22 PUSH1 0x40 MLOAD PUSH2 0x9FF SWAP1 PUSH2 0x133B JUMP JUMPDEST PUSH1 0x40 MLOAD DUP1 SWAP2 SUB SWAP1 LOG1 JUMPDEST POP DUP1 PUSH2 0xA13 DUP2 PUSH2 0x14BF JUMP JUMPDEST SWAP2 POP POP PUSH2 0x5B4 JUMP JUMPDEST POP PUSH1 0x1 SWAP1 POP JUMPDEST SWAP2 SWAP1 POP JUMP JUMPDEST PUSH1 0x0 PUSH2 0xA30 PUSH2 0xB42 JUMP JUMPDEST ISZERO PUSH2 0xA4D JUMPI PUSH1 0x40 MLOAD PUSH3 0x461BCD PUSH1 0xE5 SHL DUP2 MSTORE PUSH1 0x4 ADD PUSH2 0x3AB SWAP1 PUSH2 0x12DC JUMP JUMPDEST CALLER PUSH1 0x0 SWAP1 DUP2 MSTORE PUSH1 0x4 PUSH1 0x20 MSTORE PUSH1 0x40 SWAP1 KECCAK256 SLOAD PUSH2 0xA79 JUMPI PUSH1 0x40 MLOAD PUSH3 0x461BCD PUSH1 0xE5 SHL DUP2 MSTORE PUSH1 0x4 ADD PUSH2 0x3AB SWAP1 PUSH2 0x1277 JUMP JUMPDEST CALLER PUSH1 0x0 SWAP1 DUP2 MSTORE PUSH1 0x4 PUSH1 0x20 MSTORE PUSH1 0x40 DUP2 KECCAK256 PUSH1 0x1 ADD DUP1 SLOAD DUP5 SWAP3 SWAP1 PUSH2 0xA9B SWAP1 DUP5 SWAP1 PUSH2 0x1451 JUMP JUMPDEST SWAP1 SWAP2 SSTORE POP POP PUSH1 0x3 DUP1 SLOAD PUSH1 0x1 DUP2 ADD DUP3 SSTORE PUSH1 0x0 SWAP2 SWAP1 SWAP2 MSTORE PUSH32 0xC2575A0E9E593C00F959F8C92F12DB2869C3395A3B0502D05E2516446F71F85B ADD DUP1 SLOAD PUSH1 0x1 PUSH1 0x1 PUSH1 0xA0 SHL SUB NOT AND CALLER SWAP1 DUP2 OR SWAP1 SWAP2 SSTORE PUSH2 0xB00 SWAP1 PUSH2 0xAFB DUP5 PUSH8 0xDE0B6B3A7640000 PUSH2 0x1489 JUMP JUMPDEST PUSH2 0xF87 JUMP JUMPDEST POP PUSH32 0x255FC9735037BA0730909ADCC04691FB7C2DD775114A7E9533ECECEF8248E524 CALLER DUP4 PUSH1 0x40 MLOAD PUSH2 0xB32 SWAP3 SWAP2 SWAP1 PUSH2 0x119F JUMP JUMPDEST PUSH1 0x40 MLOAD DUP1 SWAP2 SUB SWAP1 LOG1 POP PUSH1 0x1 SWAP2 SWAP1 POP JUMP JUMPDEST PUSH1 0x0 SLOAD PUSH1 0xFF AND SWAP1 JUMP JUMPDEST PUSH1 0x0 DUP1 PUSH2 0xB56 PUSH2 0xCA0 JUMP JUMPDEST SWAP1 POP PUSH1 0x0 DUP2 PUSH2 0xB6E DUP6 PUSH9 0x3635C9ADC5DEA00000 PUSH2 0x1489 JUMP JUMPDEST PUSH2 0xB78 SWAP2 SWAP1 PUSH2 0x1469 JUMP JUMPDEST PUSH2 0xB85 SWAP1 PUSH3 0x186A0 PUSH2 0x1489 JUMP JUMPDEST SWAP5 SWAP4 POP POP POP POP JUMP JUMPDEST PUSH1 0x3 DUP2 DUP2 SLOAD DUP2 LT PUSH2 0xB9D JUMPI PUSH1 0x0 DUP1 REVERT JUMPDEST PUSH1 0x0 SWAP2 DUP3 MSTORE PUSH1 0x20 SWAP1 SWAP2 KECCAK256 ADD SLOAD PUSH1 0x1 PUSH1 0x1 PUSH1 0xA0 SHL SUB AND SWAP1 POP DUP2 JUMP JUMPDEST PUSH2 0xBBF PUSH2 0xF15 JUMP JUMPDEST PUSH1 0x1 PUSH1 0x1 PUSH1 0xA0 SHL SUB AND PUSH2 0xBD0 PUSH2 0xC8C JUMP JUMPDEST PUSH1 0x1 PUSH1 0x1 PUSH1 0xA0 SHL SUB AND EQ PUSH2 0xBF6 JUMPI PUSH1 0x40 MLOAD PUSH3 0x461BCD PUSH1 0xE5 SHL DUP2 MSTORE PUSH1 0x4 ADD PUSH2 0x3AB SWAP1 PUSH2 0x1306 JUMP JUMPDEST PUSH1 0x0 DUP1 SLOAD PUSH1 0x40 MLOAD PUSH2 0x100 SWAP1 SWAP2 DIV PUSH1 0x1 PUSH1 0x1 PUSH1 0xA0 SHL SUB AND SWAP1 PUSH32 0x8BE0079C531659141344CD1FD0A4F28419497F9722A3DAAFE3B4186F6B6457E0 SWAP1 DUP4 SWAP1 LOG3 PUSH1 0x0 DUP1 SLOAD PUSH2 0x100 PUSH1 0x1 PUSH1 0xA8 SHL SUB NOT AND SWAP1 SSTORE JUMP JUMPDEST PUSH2 0xC4D PUSH2 0xF15 JUMP JUMPDEST PUSH1 0x1 PUSH1 0x1 PUSH1 0xA0 SHL SUB AND PUSH2 0xC5E PUSH2 0xC8C JUMP JUMPDEST PUSH1 0x1 PUSH1 0x1 PUSH1 0xA0 SHL SUB AND EQ PUSH2 0xC84 JUMPI PUSH1 0x40 MLOAD PUSH3 0x461BCD PUSH1 0xE5 SHL DUP2 MSTORE PUSH1 0x4 ADD PUSH2 0x3AB SWAP1 PUSH2 0x1306 JUMP JUMPDEST PUSH2 0x4C8 PUSH2 0x104D JUMP JUMPDEST PUSH1 0x0 SLOAD PUSH2 0x100 SWAP1 DIV PUSH1 0x1 PUSH1 0x1 PUSH1 0xA0 SHL SUB AND SWAP1 JUMP JUMPDEST PUSH1 0x0 DUP1 PUSH1 0x2 PUSH1 0x0 SWAP1 SLOAD SWAP1 PUSH2 0x100 EXP SWAP1 DIV PUSH1 0x1 PUSH1 0x1 PUSH1 0xA0 SHL SUB AND PUSH1 0x1 PUSH1 0x1 PUSH1 0xA0 SHL SUB AND PUSH4 0xFEAF968C PUSH1 0x40 MLOAD DUP2 PUSH4 0xFFFFFFFF AND PUSH1 0xE0 SHL DUP2 MSTORE PUSH1 0x4 ADD PUSH1 0xA0 PUSH1 0x40 MLOAD DUP1 DUP4 SUB DUP2 DUP7 DUP1 EXTCODESIZE ISZERO DUP1 ISZERO PUSH2 0xCF1 JUMPI PUSH1 0x0 DUP1 REVERT JUMPDEST POP GAS STATICCALL ISZERO DUP1 ISZERO PUSH2 0xD05 JUMPI RETURNDATASIZE PUSH1 0x0 DUP1 RETURNDATACOPY RETURNDATASIZE PUSH1 0x0 REVERT JUMPDEST POP POP POP POP PUSH1 0x40 MLOAD RETURNDATASIZE PUSH1 0x1F NOT PUSH1 0x1F DUP3 ADD AND DUP3 ADD DUP1 PUSH1 0x40 MSTORE POP DUP2 ADD SWAP1 PUSH2 0xD29 SWAP2 SWAP1 PUSH2 0x1139 JUMP JUMPDEST POP SWAP2 SWAP5 POP POP POP POP POP SWAP1 JUMP JUMPDEST PUSH1 0x5 PUSH1 0x20 MSTORE PUSH1 0x0 SWAP1 DUP2 MSTORE PUSH1 0x40 SWAP1 KECCAK256 DUP1 SLOAD PUSH1 0x1 SWAP1 SWAP2 ADD SLOAD DUP3 JUMP JUMPDEST PUSH1 0x1 PUSH1 0x1 PUSH1 0xA0 SHL SUB AND PUSH1 0x0 SWAP1 DUP2 MSTORE PUSH1 0x5 PUSH1 0x20 MSTORE PUSH1 0x40 SWAP1 KECCAK256 DUP1 SLOAD PUSH1 0x1 SWAP1 SWAP2 ADD SLOAD SWAP1 SWAP2 JUMP JUMPDEST PUSH1 0x0 PUSH2 0xD7A PUSH2 0xB42 JUMP JUMPDEST ISZERO PUSH2 0xD97 JUMPI PUSH1 0x40 MLOAD PUSH3 0x461BCD PUSH1 0xE5 SHL DUP2 MSTORE PUSH1 0x4 ADD PUSH2 0x3AB SWAP1 PUSH2 0x12DC JUMP JUMPDEST CALLER PUSH1 0x0 SWAP1 DUP2 MSTORE PUSH1 0x4 PUSH1 0x20 MSTORE PUSH1 0x40 SWAP1 KECCAK256 SLOAD ISZERO PUSH2 0xDC4 JUMPI PUSH1 0x40 MLOAD PUSH3 0x461BCD PUSH1 0xE5 SHL DUP2 MSTORE PUSH1 0x4 ADD PUSH2 0x3AB SWAP1 PUSH2 0x1240 JUMP JUMPDEST PUSH2 0x3E8 CALLVALUE LT ISZERO PUSH2 0xDE6 JUMPI PUSH1 0x40 MLOAD PUSH3 0x461BCD PUSH1 0xE5 SHL DUP2 MSTORE PUSH1 0x4 ADD PUSH2 0x3AB SWAP1 PUSH2 0x13F6 JUMP JUMPDEST CALLER PUSH1 0x0 SWAP1 DUP2 MSTORE PUSH1 0x4 PUSH1 0x20 MSTORE PUSH1 0x40 DUP2 KECCAK256 DUP1 SLOAD CALLVALUE SWAP3 SWAP1 PUSH2 0xE05 SWAP1 DUP5 SWAP1 PUSH2 0x1451 JUMP JUMPDEST SWAP1 SWAP2 SSTORE POP POP PUSH1 0x40 MLOAD PUSH32 0x7F48E4F7F3EF2C63408B16A799B8516CB879C145386AEDD51A36938A02A1C283 SWAP1 PUSH2 0xE3C SWAP1 CALLER SWAP1 CALLVALUE SWAP1 PUSH2 0x119F JUMP JUMPDEST PUSH1 0x40 MLOAD DUP1 SWAP2 SUB SWAP1 LOG1 POP PUSH1 0x1 SWAP1 JUMP JUMPDEST PUSH2 0xE52 PUSH2 0xF15 JUMP JUMPDEST PUSH1 0x1 PUSH1 0x1 PUSH1 0xA0 SHL SUB AND PUSH2 0xE63 PUSH2 0xC8C JUMP JUMPDEST PUSH1 0x1 PUSH1 0x1 PUSH1 0xA0 SHL SUB AND EQ PUSH2 0xE89 JUMPI PUSH1 0x40 MLOAD PUSH3 0x461BCD PUSH1 0xE5 SHL DUP2 MSTORE PUSH1 0x4 ADD PUSH2 0x3AB SWAP1 PUSH2 0x1306 JUMP JUMPDEST PUSH1 0x1 PUSH1 0x1 PUSH1 0xA0 SHL SUB DUP2 AND PUSH2 0xEAF JUMPI PUSH1 0x40 MLOAD PUSH3 0x461BCD PUSH1 0xE5 SHL DUP2 MSTORE PUSH1 0x4 ADD PUSH2 0x3AB SWAP1 PUSH2 0x11FA JUMP JUMPDEST PUSH1 0x0 DUP1 SLOAD PUSH1 0x40 MLOAD PUSH1 0x1 PUSH1 0x1 PUSH1 0xA0 SHL SUB DUP1 DUP6 AND SWAP4 PUSH2 0x100 SWAP1 SWAP4 DIV AND SWAP2 PUSH32 0x8BE0079C531659141344CD1FD0A4F28419497F9722A3DAAFE3B4186F6B6457E0 SWAP2 LOG3 PUSH1 0x0 DUP1 SLOAD PUSH1 0x1 PUSH1 0x1 PUSH1 0xA0 SHL SUB SWAP1 SWAP3 AND PUSH2 0x100 MUL PUSH2 0x100 PUSH1 0x1 PUSH1 0xA8 SHL SUB NOT SWAP1 SWAP3 AND SWAP2 SWAP1 SWAP2 OR SWAP1 SSTORE JUMP JUMPDEST CALLER SWAP1 JUMP JUMPDEST PUSH2 0xF21 PUSH2 0xB42 JUMP JUMPDEST PUSH2 0xF3D JUMPI PUSH1 0x40 MLOAD PUSH3 0x461BCD PUSH1 0xE5 SHL DUP2 MSTORE PUSH1 0x4 ADD PUSH2 0x3AB SWAP1 PUSH2 0x11CC JUMP JUMPDEST PUSH1 0x0 DUP1 SLOAD PUSH1 0xFF NOT AND SWAP1 SSTORE PUSH32 0x5DB9EE0A495BF2E6FF9C91A7834C1BA4FDD244A5E8AA4E537BD38AEAE4B073AA PUSH2 0xF70 PUSH2 0xF15 JUMP JUMPDEST PUSH1 0x40 MLOAD PUSH2 0xF7D SWAP2 SWAP1 PUSH2 0x118B JUMP JUMPDEST PUSH1 0x40 MLOAD DUP1 SWAP2 SUB SWAP1 LOG1 JUMP JUMPDEST PUSH1 0x0 PUSH32 0x160F401DD6D182905810FD6323E93EB677C6FE100B0010A51D3DE5CCE59E439A DUP4 DUP4 PUSH1 0x40 MLOAD PUSH2 0xFBA SWAP3 SWAP2 SWAP1 PUSH2 0x119F JUMP JUMPDEST PUSH1 0x40 MLOAD DUP1 SWAP2 SUB SWAP1 LOG1 PUSH1 0x1 SLOAD PUSH1 0x40 MLOAD PUSH4 0xA9059CBB PUSH1 0xE0 SHL DUP2 MSTORE PUSH1 0x1 PUSH1 0x1 PUSH1 0xA0 SHL SUB SWAP1 SWAP2 AND SWAP1 PUSH4 0xA9059CBB SWAP1 PUSH2 0xFF4 SWAP1 DUP7 SWAP1 DUP7 SWAP1 PUSH1 0x4 ADD PUSH2 0x119F JUMP JUMPDEST PUSH1 0x20 PUSH1 0x40 MLOAD DUP1 DUP4 SUB DUP2 PUSH1 0x0 DUP8 DUP1 EXTCODESIZE ISZERO DUP1 ISZERO PUSH2 0x100E JUMPI PUSH1 0x0 DUP1 REVERT JUMPDEST POP GAS CALL ISZERO DUP1 ISZERO PUSH2 0x1022 JUMPI RETURNDATASIZE PUSH1 0x0 DUP1 RETURNDATACOPY RETURNDATASIZE PUSH1 0x0 REVERT JUMPDEST POP POP POP POP PUSH1 0x40 MLOAD RETURNDATASIZE PUSH1 0x1F NOT PUSH1 0x1F DUP3 ADD AND DUP3 ADD DUP1 PUSH1 0x40 MSTORE POP DUP2 ADD SWAP1 PUSH2 0x1046 SWAP2 SWAP1 PUSH2 0x10E9 JUMP JUMPDEST SWAP4 SWAP3 POP POP POP JUMP JUMPDEST PUSH2 0x1055 PUSH2 0xB42 JUMP JUMPDEST ISZERO PUSH2 0x1072 JUMPI PUSH1 0x40 MLOAD PUSH3 0x461BCD PUSH1 0xE5 SHL DUP2 MSTORE PUSH1 0x4 ADD PUSH2 0x3AB SWAP1 PUSH2 0x12DC JUMP JUMPDEST PUSH1 0x0 DUP1 SLOAD PUSH1 0xFF NOT AND PUSH1 0x1 OR SWAP1 SSTORE PUSH32 0x62E78CEA01BEE320CD4E420270B5EA74000D11B0C9F74754EBDBFC544B05A258 PUSH2 0xF70 PUSH2 0xF15 JUMP JUMPDEST DUP1 MLOAD PUSH10 0xFFFFFFFFFFFFFFFFFFFF DUP2 AND DUP2 EQ PUSH2 0xA21 JUMPI PUSH1 0x0 DUP1 REVERT JUMPDEST PUSH1 0x0 PUSH1 0x20 DUP3 DUP5 SUB SLT ISZERO PUSH2 0x10D3 JUMPI DUP1 DUP2 REVERT JUMPDEST DUP2 CALLDATALOAD PUSH1 0x1 PUSH1 0x1 PUSH1 0xA0 SHL SUB DUP2 AND DUP2 EQ PUSH2 0x1046 JUMPI DUP2 DUP3 REVERT JUMPDEST PUSH1 0x0 PUSH1 0x20 DUP3 DUP5 SUB SLT ISZERO PUSH2 0x10FA JUMPI DUP1 DUP2 REVERT JUMPDEST DUP2 MLOAD DUP1 ISZERO ISZERO DUP2 EQ PUSH2 0x1046 JUMPI DUP2 DUP3 REVERT JUMPDEST PUSH1 0x0 PUSH1 0x20 DUP3 DUP5 SUB SLT ISZERO PUSH2 0x111A JUMPI DUP1 DUP2 REVERT JUMPDEST POP CALLDATALOAD SWAP2 SWAP1 POP JUMP JUMPDEST PUSH1 0x0 PUSH1 0x20 DUP3 DUP5 SUB SLT ISZERO PUSH2 0x1132 JUMPI DUP1 DUP2 REVERT JUMPDEST POP MLOAD SWAP2 SWAP1 POP JUMP JUMPDEST PUSH1 0x0 DUP1 PUSH1 0x0 DUP1 PUSH1 0x0 PUSH1 0xA0 DUP7 DUP9 SUB SLT ISZERO PUSH2 0x1150 JUMPI DUP1 DUP2 REVERT JUMPDEST PUSH2 0x1159 DUP7 PUSH2 0x10A8 JUMP JUMPDEST SWAP5 POP PUSH1 0x20 DUP7 ADD MLOAD SWAP4 POP PUSH1 0x40 DUP7 ADD MLOAD SWAP3 POP PUSH1 0x60 DUP7 ADD MLOAD SWAP2 POP PUSH2 0x117C PUSH1 0x80 DUP8 ADD PUSH2 0x10A8 JUMP JUMPDEST SWAP1 POP SWAP3 SWAP6 POP SWAP3 SWAP6 SWAP1 SWAP4 POP JUMP JUMPDEST SWAP1 JUMP JUMPDEST PUSH1 0x1 PUSH1 0x1 PUSH1 0xA0 SHL SUB SWAP2 SWAP1 SWAP2 AND DUP2 MSTORE PUSH1 0x20 ADD SWAP1 JUMP JUMPDEST PUSH1 0x1 PUSH1 0x1 PUSH1 0xA0 SHL SUB SWAP3 SWAP1 SWAP3 AND DUP3 MSTORE PUSH1 0x20 DUP3 ADD MSTORE PUSH1 0x40 ADD SWAP1 JUMP JUMPDEST SWAP1 ISZERO ISZERO DUP2 MSTORE PUSH1 0x20 ADD SWAP1 JUMP JUMPDEST SWAP1 DUP2 MSTORE PUSH1 0x20 ADD SWAP1 JUMP JUMPDEST PUSH1 0x20 DUP1 DUP3 MSTORE PUSH1 0x14 SWAP1 DUP3 ADD MSTORE PUSH20 0x14185D5CD8589B194E881B9BDD081C185D5CD959 PUSH1 0x62 SHL PUSH1 0x40 DUP3 ADD MSTORE PUSH1 0x60 ADD SWAP1 JUMP JUMPDEST PUSH1 0x20 DUP1 DUP3 MSTORE PUSH1 0x26 SWAP1 DUP3 ADD MSTORE PUSH32 0x4F776E61626C653A206E6577206F776E657220697320746865207A65726F2061 PUSH1 0x40 DUP3 ADD MSTORE PUSH6 0x646472657373 PUSH1 0xD0 SHL PUSH1 0x60 DUP3 ADD MSTORE PUSH1 0x80 ADD SWAP1 JUMP JUMPDEST PUSH1 0x20 DUP1 DUP3 MSTORE PUSH1 0x1D SWAP1 DUP3 ADD MSTORE PUSH32 0x596F7520616C726561647920706179206D656265727368697020666565000000 PUSH1 0x40 DUP3 ADD MSTORE PUSH1 0x60 ADD SWAP1 JUMP JUMPDEST PUSH1 0x20 DUP1 DUP3 MSTORE PUSH1 0x1E SWAP1 DUP3 ADD MSTORE PUSH32 0x506C65617365206265636F6D6520536D617274434F4F50206D656D6265720000 PUSH1 0x40 DUP3 ADD MSTORE PUSH1 0x60 ADD SWAP1 JUMP JUMPDEST PUSH1 0x20 DUP1 DUP3 MSTORE PUSH1 0x14 SWAP1 DUP3 ADD MSTORE PUSH20 0x2330B4B632B2103A379039B2B7321022BA3432B9 PUSH1 0x61 SHL PUSH1 0x40 DUP3 ADD MSTORE PUSH1 0x60 ADD SWAP1 JUMP JUMPDEST PUSH1 0x20 DUP1 DUP3 MSTORE PUSH1 0x10 SWAP1 DUP3 ADD MSTORE PUSH16 0x14185D5CD8589B194E881C185D5CD959 PUSH1 0x82 SHL PUSH1 0x40 DUP3 ADD MSTORE PUSH1 0x60 ADD SWAP1 JUMP JUMPDEST PUSH1 0x20 DUP1 DUP3 MSTORE DUP2 DUP2 ADD MSTORE PUSH32 0x4F776E61626C653A2063616C6C6572206973206E6F7420746865206F776E6572 PUSH1 0x40 DUP3 ADD MSTORE PUSH1 0x60 ADD SWAP1 JUMP JUMPDEST PUSH1 0x20 DUP1 DUP3 MSTORE PUSH1 0x2B SWAP1 DUP3 ADD MSTORE PUSH32 0x5468657265207369206E6F20656E6F7567682072617370626572726965732069 PUSH1 0x40 DUP3 ADD MSTORE PUSH11 0x6E2077617265686F757365 PUSH1 0xA8 SHL PUSH1 0x60 DUP3 ADD MSTORE PUSH1 0x80 ADD SWAP1 JUMP JUMPDEST PUSH1 0x80 DUP1 DUP3 MSTORE PUSH1 0x1E SWAP1 DUP3 ADD MSTORE PUSH32 0x546F20796F7572206163636F756E7420776173207472616E7366657265640000 PUSH1 0xA0 DUP3 ADD MSTORE PUSH1 0x20 DUP2 ADD SWAP3 SWAP1 SWAP3 MSTORE PUSH1 0xC0 PUSH1 0x40 DUP4 ADD DUP2 SWAP1 MSTORE PUSH1 0x13 SWAP1 DUP4 ADD MSTORE PUSH19 0x105B99081BDB8810D3D3D4081858D8DBDD5B9D PUSH1 0x6A SHL PUSH1 0xE0 DUP4 ADD MSTORE PUSH1 0x60 DUP3 ADD MSTORE PUSH2 0x100 ADD SWAP1 JUMP JUMPDEST PUSH1 0x20 DUP1 DUP3 MSTORE PUSH1 0x1E SWAP1 DUP3 ADD MSTORE PUSH32 0x596561726C7920666565206973206D696E696D756D2031303030207765690000 PUSH1 0x40 DUP3 ADD MSTORE PUSH1 0x60 ADD SWAP1 JUMP JUMPDEST SWAP2 DUP3 MSTORE PUSH1 0x20 DUP3 ADD MSTORE PUSH1 0x40 ADD SWAP1 JUMP JUMPDEST SWAP3 DUP4 MSTORE PUSH1 0x20 DUP4 ADD SWAP2 SWAP1 SWAP2 MSTORE PUSH1 0x40 DUP3 ADD MSTORE PUSH1 0x60 ADD SWAP1 JUMP JUMPDEST PUSH1 0x0 DUP3 NOT DUP3 GT ISZERO PUSH2 0x1464 JUMPI PUSH2 0x1464 PUSH2 0x14DA JUMP JUMPDEST POP ADD SWAP1 JUMP JUMPDEST PUSH1 0x0 DUP3 PUSH2 0x1484 JUMPI PUSH4 0x4E487B71 PUSH1 0xE0 SHL DUP2 MSTORE PUSH1 0x12 PUSH1 0x4 MSTORE PUSH1 0x24 DUP2 REVERT JUMPDEST POP DIV SWAP1 JUMP JUMPDEST PUSH1 0x0 DUP2 PUSH1 0x0 NOT DIV DUP4 GT DUP3 ISZERO ISZERO AND ISZERO PUSH2 0x14A3 JUMPI PUSH2 0x14A3 PUSH2 0x14DA JUMP JUMPDEST POP MUL SWAP1 JUMP JUMPDEST PUSH1 0x0 DUP3 DUP3 LT ISZERO PUSH2 0x14BA JUMPI PUSH2 0x14BA PUSH2 0x14DA JUMP JUMPDEST POP SUB SWAP1 JUMP JUMPDEST PUSH1 0x0 PUSH1 0x0 NOT DUP3 EQ ISZERO PUSH2 0x14D3 JUMPI PUSH2 0x14D3 PUSH2 0x14DA JUMP JUMPDEST POP PUSH1 0x1 ADD SWAP1 JUMP JUMPDEST PUSH4 0x4E487B71 PUSH1 0xE0 SHL PUSH1 0x0 MSTORE PUSH1 0x11 PUSH1 0x4 MSTORE PUSH1 0x24 PUSH1 0x0 REVERT INVALID LOG2 PUSH5 0x6970667358 0x22 SLT KECCAK256 0xEA LOG0 0xD1 PUSH22 0xA1577C24D9915987257DEE1F9FC7BA6D64EF1391359D 0x4E 0xFC 0x27 0xB2 PUSH17 0x7A64736F6C634300080000330000000000 ",
  "sha1": "5ea8e7b7d03fea971fd19276fbfe47a56ba61042",
  "source": "// SPDX-License-Identifier: MIT\n\n/**\n * @title SmartCOOP\n * @author Ilija Petronijevic\n * @notice Contract should be use only as proof of basic concept for smart contract usage in the field of agricultural cooperatives.\n */\n\npragma solidity 0.8.0;\n\nimport \"@openzeppelin/contracts/token/ERC20/IERC20.sol\";\nimport \"@chainlink/contracts/src/v0.8/interfaces/AggregatorV3Interface.sol\";\nimport \"@openzeppelin/contracts/access/Ownable.sol\";\nimport \"@openzeppelin/contracts/security/Pausable.sol\";\n\ncontract SmartCOOP is Pausable, Ownable {\n    IERC20 private coopToken;\n    AggregatorV3Interface private priceFeed;\n\n    uint256 private constant RASPBERRY_PRICE = 9;\n\n    // State variables\n\n    /// @dev All state varibales are marked with starting s_\n    address[] public s_warehouseStock;\n\n    struct Cooperant {\n        uint256 feePayed;\n        uint256 kg;\n    }\n\n    struct Bidder {\n        uint256 totalPayed;\n        uint256 kgBought;\n    }\n\n    mapping(address => Cooperant) public s_cooperants;\n    mapping(address => Bidder) public s_bidders;\n\n    /**\n     *@dev We use COOPToken (ERC20 based OpenZeppelin implementation) address to instatiate this contract inside SmartCOOP and to call\n     * transfer function from within depositFruitsToCoop function. Then we use chanilink Kovan test net address to instatiate interface which\n     * will provide to us real time ETH/USD price feed.\n     * IMPORTANT: if we deploy this contract localy get_contract and get_acount funcitons from scripts/helpful_scripts.py will notice that we\n     * are deploying localy and instead of chainlink Kovan test net interface we will deploy mock to be used in context od local enviroment.\n     * What means that there is no need for any additional intervention or configuration from side of developer. This contract will be fully\n     * operational in Kovan testnet enviroment as well as in local ganache dev enviroment with Chainlink price feed.\n     */\n    constructor(address contractAddress, address chainlinkPrice) {\n        coopToken = IERC20(contractAddress);\n        priceFeed = AggregatorV3Interface(chainlinkPrice);\n    }\n\n    // Events\n\n    event NewMember(address sender, uint256 amount);\n    event DepositFruits(address cooperant, uint256 kilograms);\n    event TransferMade(\n        string messageToProducer,\n        uint256 inEthProducer,\n        string messageToCoop,\n        uint256 inEthCoop\n    );\n    event NotEnoughGoods(string message);\n    event ToContract(address sender, uint256 amount);\n    event WithdrawConfirmation(address receiver, uint256 amount);\n    event COOPTokenTransferConfirmation(address receiver, uint256 amount);\n\n    // Modifiers\n\n    ///@dev control that function can be called only by SmartCOOP members (depositFruitsToCOOP function)\n    modifier onlyMembers() {\n        require(\n            s_cooperants[msg.sender].feePayed != 0,\n            \"Please become SmartCOOP member\"\n        );\n        _;\n    }\n\n    ///@dev Controling that function can be called only by EOA which is not already registered as SmartCOOP members (becomeCoopMember function)\n    modifier onlyNewMembers() {\n        require(\n            s_cooperants[msg.sender].feePayed == 0,\n            \"You already pay mebership fee\"\n        );\n        _;\n    }\n\n    ///@dev Controlling the fee paid when we call becomeCoopMember function is more then 1000 wei\n    modifier minimumFee() {\n        require(msg.value >= 1000, \"Yearly fee is minimum 1000 wei\");\n        _;\n    }\n\n    // Functions\n\n    /// @notice Allowing new EOA to become SmartCOOP member\n    /// @return If execution was successful function will return true\n    function becomeCoopMember()\n        public\n        payable\n        whenNotPaused\n        onlyNewMembers\n        minimumFee\n        returns (bool)\n    {\n        s_cooperants[msg.sender].feePayed += msg.value;\n        emit NewMember(msg.sender, msg.value);\n        return true;\n    }\n\n    /// @notice Allowing EOA which already pay SmartCOOP membership fee to deposit fruits to SmartCOOP warehouse\n    /// @param _kg Passing number of kilograms producer would like to deposit to warehouse\n    /// @return If execution was successful function will return true\n    function depositFruitsToCOOP(uint256 _kg)\n        public\n        whenNotPaused\n        onlyMembers\n        returns (bool)\n    {\n        s_cooperants[msg.sender].kg += _kg;\n        s_warehouseStock.push(msg.sender);\n        coopTokenTransferTo(msg.sender, _kg * (10**18));\n        emit DepositFruits(msg.sender, _kg);\n        return true;\n    }\n\n    /**\n     * @notice This function will allow any EOA that is not already member of cooperative to bid for fruits inside SmartCOOP warhouse.\n     * @dev RASPBERRY_PRICE is hard coded because there is no out of the box chainlink date feed for raspberry price and alterantive solution includes using\n     * HTTP GET request to external API using chainlink request&receive data cycle. What we consider to be a bit out of scope of this project and inital\n     * ambition.\n     * @param _amount uint256 for amount of fruits bidder would like to buy\n     * @return If execution was successful function will return true\n     */\n    function bid(uint256 _amount) public payable whenNotPaused returns (bool) {\n        for (\n            uint256 warehouseStockIndex = 0;\n            warehouseStockIndex < s_warehouseStock.length;\n            warehouseStockIndex++\n        ) {\n            address inStockCooperantAddress = s_warehouseStock[\n                warehouseStockIndex\n            ];\n            if (s_cooperants[inStockCooperantAddress].kg <= _amount) {\n                uint256 totalPrice = s_cooperants[inStockCooperantAddress].kg *\n                    RASPBERRY_PRICE;\n                uint256 priceWeiProducer = (ethUSD(totalPrice) / 100) * 95;\n                uint256 priceWeiCOOP = (ethUSD(totalPrice) / 100) * 5;\n\n                (bool sentProducer, ) = inStockCooperantAddress.call{\n                    value: priceWeiProducer\n                }(\"\");\n                require(sentProducer, \"Failed to send Ether\");\n                delete s_warehouseStock[warehouseStockIndex];\n                _amount -= s_cooperants[inStockCooperantAddress].kg;\n                s_bidders[msg.sender].totalPayed += totalPrice;\n                s_bidders[msg.sender].kgBought += s_cooperants[\n                    inStockCooperantAddress\n                ].kg;\n                s_cooperants[inStockCooperantAddress].kg = 0;\n                emit TransferMade(\n                    \"To your account was transfered\",\n                    priceWeiProducer,\n                    \"And on COOP account\",\n                    priceWeiCOOP\n                );\n            } else if (s_cooperants[inStockCooperantAddress].kg >= _amount) {\n                s_cooperants[inStockCooperantAddress].kg -= _amount;\n                uint256 totalPrice = _amount * RASPBERRY_PRICE;\n                uint256 priceWeiProducer = (ethUSD(totalPrice) / 100) * 95;\n                uint256 priceWeiCOOP = (ethUSD(totalPrice) / 100) * 5;\n                s_bidders[msg.sender].kgBought += _amount;\n                s_bidders[msg.sender].totalPayed += totalPrice;\n\n                (bool sentProducer, ) = inStockCooperantAddress.call{\n                    value: priceWeiProducer\n                }(\"\");\n                require(sentProducer, \"Failed to send Ether\");\n                emit TransferMade(\n                    \"To your account was transfered\",\n                    priceWeiProducer,\n                    \"And on COOP account\",\n                    priceWeiCOOP\n                );\n            } else {\n                emit NotEnoughGoods(\n                    \"There si no enough raspberries in warehouse\"\n                );\n            }\n        }\n        return true;\n    }\n\n    /// @notice This function is used to transfer COOPTokens to producer account in equal amount to the fruits he deposit to warehouse.\n    /// @dev Used only inside depositFruitsToCOOP function.\n    /// @param receiver Passing address to which COOPToken will be transferred.\n    /// @param _kg Number of kilograms of fruits producer would like to deploy to warehouse. Based on this argument he will receive equal amount of COOPTokens.\n    /// @return If execution was successful function will return true.\n    function coopTokenTransferTo(address receiver, uint256 _kg)\n        private\n        returns (bool)\n    {\n        emit COOPTokenTransferConfirmation(receiver, _kg);\n        return coopToken.transfer(receiver, _kg);\n    }\n\n    /// @notice This function is used to withdraw eth from SmartCOOP account\n    /// @dev By modifier onlyOwner we restrict right to call this function only to EOA who deploy both SmartCOOP and COOPToken\n    /// @return If execution was successful function will return true\n    function withdraw() public onlyOwner returns (bool) {\n        uint256 coopBalance = address(this).balance;\n        (bool sent, ) = owner().call{value: address(this).balance}(\"\");\n        emit WithdrawConfirmation(owner(), coopBalance);\n        require(sent, \"Failed to send Ether\");\n        return true;\n    }\n\n    /// @notice This function is used to provide overview of user SmartCOOP account\n    /// @param _user We pass user address as argument\n    /// @return If executed sucesfully function will return 3 values: 1) how much user pay SmartCOOP fee; 2) Total //..//// amount of kg user currenly have in\n    /// SmartCOOP warehouse; 3) Total amount of COOPTokens he/she receive\n    function getUserAccountBalance(address _user)\n        public\n        view\n        returns (\n            uint256,\n            uint256,\n            uint256\n        )\n    {\n        return (\n            s_cooperants[_user].feePayed,\n            s_cooperants[_user].kg,\n            coopToken.balanceOf(_user) / (10**18)\n        );\n    }\n\n    /// @notice This function is used to provide overview of bidder SmartCOOP account\n    /// @param _bidder We pass bidder address\n    /// @return If executed successfully function will return 2 values: 1) total payed for all goods bidder bought; 2) Total amount of kg bidder bought\n    // from SmartCOOP\n    function getBidderAccountBalance(address _bidder)\n        public\n        view\n        returns (uint256, uint256)\n    {\n        return (s_bidders[_bidder].totalPayed, s_bidders[_bidder].kgBought);\n    }\n\n    receive() external payable {\n        emit ToContract(msg.sender, msg.value);\n    }\n\n    fallback() external {\n        revert();\n    }\n\n    /// @dev This function is used to block usage of becomeCoopMember, depositFruitsToCOOP and bid functions in case of bugs or hacks. Pause function\n    /// can be called only by EOA who deploy COOPTOkena and SmartCOOP and it is inherited from OpenZeppelin Pausable smart contract.\n    function pause() public onlyOwner {\n        _pause();\n    }\n\n    /// @dev This function is used to unpause usage of becomeCoopMember, deposit FruitsToCOOP and bid functions.\n    function unpause() public onlyOwner {\n        _unpause();\n    }\n\n    /** @notice This function is used to get ETH/USD price ration from Chainlink price data feed. This return value form this function is later used to calculate\n     * how much bidder needs to pay for fruits he bought from SmartCOOP .\n     * @dev In case we deploy contracts to local dev enviroment get_contract and get_acount fuctions from scripts/helpful_scripts.py will deploy mock\n     * contract to be used in context of local dev. enviroment. In case we deploy to Kovan test net same function will deploy adequte contracts (KOvan testnet) and use\n     * proper accounts for this purpose.\n     * @return This function returns price (int256 data type) provided by Chainlink price date feed\n     */\n    function getLatestPrice() public view returns (int256) {\n        (, int256 price, , , ) = priceFeed.latestRoundData();\n        return price;\n    }\n\n    /// @notice Used for calculating amount of wei from USD total\n    /// @param _amount Price in USD which should be converetd to wei\n    /// @return Amount of wei to be payed\n    function ethUSD(uint256 _amount) public view returns (uint256) {\n        uint256 denominator = uint256(getLatestPrice());\n        uint256 ethInUsdAmount = ((_amount * 1000000000000000000000) /\n            denominator) * 100000;\n        return ethInUsdAmount;\n    }\n}\n",
  "sourcePath": "contracts/SmartCOOP.sol",
  "type": "contract"
}